:020000023000CC
:10100000000004203DDB030065DB030067DB030019
:1010100069DB03006BDB03006DDB030000000000F5
:101020000000000000000000000000006FDB030073
:1010300071DB03000000000073DB030075DB0300BD
:10104000816E030021D80300916E030077DB03005B
:1010500077DB030077DB030077DB030077DB03003C
:10106000B5D80300F1D8030005AB050077DB03001A
:1010700077DB030077DB030077DB030077DB03001C
:1010800077DB0300F53D030077DB030077DB03002C
:1010900077DB0300F9DA0300C932040077DB0300D1
:1010A00077DB030077DB030077DB030077DB0300EC
:1010B00077DB030077DB0300000000000000000086
:1010C00077DB030077DB030077DB030077DB0300CC
:1010D00077DB030077DB030077DB03003DB303001E
:1010E00077DB030077DB030077DB03000000000001
:1010F0000000000077DB03000000000077DB030046
:1011000000000000000000000000000000000000DF
:1011100000000000000000000000000000000000CF
:1011200000000000000000000000000000000000BF
:1011300000000000000000000000000000000000AF
:10114000000000000000000000000000000000009F
:10115000000000000000000000000000000000008F
:10116000000000000000000000000000000000007F
:10117000000000000000000000000000000000006F
:10118000000000000000000000000000000000005F
:10119000000000000000000000000000000000004F
:1011A000000000000000000000000000000000003F
:1011B000000000000000000000000000000000002F
:1011C000000000000000000000000000000000001F
:1011D000000000000000000000000000000000000F
:1011E00000000000000000000000000000000000FF
:1011F00000000000000000000000000000000000EF
:1012000010B5054C237833B9044B13B10448AFF340
:1012100000800123237010BDA861002000000000A1
:10122000E806060008B5034B1BB103490348AFF3BA
:10123000008008BD00000000AC610020E806060048
:10124000154B002B08BF134B9D46A3F5803A002198
:101250008B460F461348144A121A2BF0A1FB0F4B72
:10126000002B00D098470E4B002B00D09847002051
:10127000002104000D000D48002802D00C48AFF3F7
:1012800000802BF04DFB2000290000F001FA2BF02C
:1012900033FB00BF00000800000004200000000035
:1012A00000000000A8610020441901200000000097
:1012B0000000000041DF704700BF184680B584B0D1
:1012C00000AF78607B68002B0AD0074B43F0010326
:1012D000FB607B689B01BB60FB68B868984700E0D7
:1012E00000BF1037BD4680BD80D4050080B586B0F4
:1012F00002AFF860B9607A600F4A104BD31ADB086E
:101300001B0443F001007A68BB6800931346FA6837
:101310000B4900F085FF00BF00F0ACFF0346002B37
:10132000FAD1084B1B6803F00103002B00D000BE6C
:1013300000BF1037BD4680BD740706004C0706008D
:1013400018D30500F0ED00E080B588B002AFF8607A
:10135000B9607A6000BF00F08DFF0346002BFAD120
:10136000FB6844F2020293422FD0FB6844F202026F
:10137000934253D8FB6844F20102934237D0FB6892
:1013800044F20102934249D8FB68012B05D0FB6867
:1013900041F2010293420CD040E02F4A2F4BD31A66
:1013A000DB081B0443F001032D49184600F000FF41
:1013B00041E0294A294BD31ADB081B0443F00103FF
:1013C0002849184600F0F4FE35E07B687B61224A2C
:1013D000224BD31ADB081B0443F001007B695B68D6
:1013E0001A467B691B68204900F004FF23E07B68F4
:1013F0003B61194A194BD31ADB081B0443F0010067
:101400003B699A683B695B6819463B691B689BB2FC
:1014100000930B46154900F003FF19E00E4A0F4BED
:10142000D31ADB081B0443F00103BA6810491846BD
:1014300000F0CDFE00BF00BF00F01CFF0346002BF4
:10144000FAD10C4B1B6803F00103002B00D000BE47
:101450001837BD4680BD00BF740706004C07060064
:101460003CD305005CD3050080D305009CD3050068
:10147000B0D30500F0ED00E080B586B000AF0346C4
:101480003960FB80012001F059FDFB88FB603B685F
:101490003B6107F10C031A46002144F20200FFF7FA
:1014A00053FF084B1B6803F00103002B00D000BE64
:1014B0000123FB75FB7D002BFCD100BF00BF18375B
:1014C000BD4680BDF0ED00E080B582B000AF0346C0
:1014D000FB71FB79023B0C2B55D801A252F823F08B
:1014E0008715030087150300871503008715030080
:1014F0008715030087150300231503004F1503000C
:101500006B150300871503008715030015150300ED
:101510001D1503001F4B01221A7037E00DF04EFC21
:1015200034E01D4A1D4BD31ADB081B0443F00303B0
:101530001B49184600F03CFE0AF0F8F8034683F019
:101540000103DBB2002B20D00DF032FC1DE0124A6B
:10155000124BD31ADB081B0443F00303114918464E
:1015600000F026FE0DF068FC10E00B4A0B4BD31A7E
:10157000DB081B0443F003030B49184600F018FE78
:101580000DF032FC02E000BF00E000BF00BF0837F2
:10159000BD4680BDC4610020740706004C070600EC
:1015A000DCD30500F0D3050004D4050080B582B07B
:1015B00000AF10F0ABFE08480DF026FB78607B68AA
:1015C000002B04D0054AF1217868FFF78FFE00BF99
:1015D0000837BD4680BD00BF70D4050010D405009B
:1015E00080B582B000AF0DF0B9FB78607B68002B4E
:1015F0000BD00C4AF9217868FFF778FE05E000BFB0
:101600000DF0C6FE0346002BFAD1074B1B78DBB268
:1016100083F00103DBB2002BF1D100BF00BF08371C
:10162000BD4680BD10D40500C461002080B582B0E5
:1016300000AF002001F0CEFC00F01CFE034683F05A
:101640000103DBB2002B16D011F0A8FD0346002BDE
:101650000ED0FFF72FFE78607B68002B0BD07B68E5
:10166000022B08D0094940F21110FFF705FF02E0F4
:1016700020BF40BF20BF00BF0DF08AFE0346002BF5
:10168000FAD100BF00BF0837BD4680BD10D40500A9
:1016900080B58AB000AF00237B624FF48041002008
:1016A00000F0BAFA78627B6A3B623B6A002B05D095
:1016B000524A40F22D11386AFFF718FE00F046FA40
:1016C0004F4A504BD31ADB081B0443F003034E4927
:1016D000184600F06DFD012001F0CEFC4B48FFF7ED
:1016E000EDFD002001F076FC00F0C4FD4FF08043DA
:1016F00001229A67464A40214FF4FE7001F0DAFD5C
:10170000F861FB69BB61BB69002B05D03B4A40F225
:101710004711B869FFF7EAFD04F0D8FC78627B6AEC
:10172000002B0DD07B6A852B0AD07B6A7B617B699D
:10173000002B05D0314A4FF4A9717869FFF7D6FD27
:10174000002004F065FD00BF04F0EEFD034683F0C9
:101750000103DBB2002BF7D1FFF728FF2D4828F05B
:10176000EBFF78627B6A3B613B69002B05D0234A23
:1017700040F25F113869FFF7B9FDFFF731FF11F053
:1017800077FC78627B6AFB60FB68002B05D01B4A04
:101790004FF4B371F868FFF7A9FD11F06DF97862A5
:1017A0007B6ABB60BB68002B05D0144A40F269110C
:1017B000B868FFF79BFD184822F022FB01F0DEFE1F
:1017C00011F03EFD0346002B06D001F0B5FD0346A7
:1017D000202B01D911F004FD22F080FB78627B6A96
:1017E0007B607B68002B05D0044A4FF4C071786899
:1017F000FFF77CFDFFF71AFFE0E700BF10D40500FC
:10180000740706004C07060054D4050020A1070009
:10181000C86100203D3E05002D16030080B485B050
:1018200000AF78600B46FB701346BB700023FB6073
:101830007B68032B35D8BB78012B09D1FB78012BB2
:1018400004D17B68DBB20E33DBB200E00023BB7057
:10185000FB78022B0ED0022B20DC002B14D0012BA6
:101860001CD114497A6813465B0013440B44BA78C0
:101870001A7018E00F497A6813465B0013440B4452
:101880000133BA781A700EE00A497A6813465B0091
:1018900013440B440233BA781A7004E00723FB6048
:1018A00001E00723FB60FB6818461437BD465DF86E
:1018B000047B7047CCE4002080B584B000AF786032
:1018C0007B68002B0AD0074B43F00103FB607B6869
:1018D0009B01BB60FB68B868984700E000BF103709
:1018E000BD4680BDA0D4050080B582B000AF786051
:1018F0007B68002B0AD04FF47A70FFF7DDFF7B681E
:10190000013B7B607B68002BF5D100E000BF08370E
:10191000BD4680BD80B500AF01F0E6F900BF80BDD7
:1019200080B588B000AFF860B9607A607B68002B42
:1019300033D00023FB610323BB61BA68FB69134406
:101940007A681946002001F07FF97861FA697B69AD
:101950001344FB617A687B69D31A7B607B69002B37
:1019600013D1104B1B7883F00103DBB2002B13D192
:101970000120FFF7B9FFBB69013BBB61BB69002BCD
:1019800003D1084B00221A7007E0064B01221A709F
:101990007B68002BD1D100E000BF00BF2037BD46DF
:1019A00080BD00BFD8E4002080B584B002AF78606D
:1019B0003960064B00934023054A3968786800F087
:1019C0001DF800BF0837BD4680BD00BF21190300C8
:1019D000DCE4002080B483B000AF786000BF0C3737
:1019E000BD465DF8047B704780B483B000AF78607B
:1019F00000BF0C37BD465DF8047B704780B5A0B0D2
:101A000002AFF860B9607A603B60B86803F0ACFA86
:101A10007B68FB643B683B6500237B65002387F89C
:101A200058300023FB65D7F880303B6600237B6786
:101A300007F134017B6F0822B86803F075FB0823B7
:101A40007B67FB6B3B643B8FA7F844307B8FA7F829
:101A50004630012387F8493097F8343003F0030308
:101A6000DBB2012B29D17B6BC3F39523BB6697F8BF
:101A70003430C3F3C203DBB287F84830BB8EC3F304
:101A80008313DBB27B667B6E9A0007F11C017B6FD0
:101A9000B86803F049FB7B6E9B007A6F13447B6749
:101AA00007F1400207F11C0107F14C0300931346B4
:101AB0007A6EB86E00F0A0FE32E097F8343003F092
:101AC0000303DBB2022B2BD1FB8EC3F389139BB232
:101AD0003B6797F83430C3F3C203DBB287F8483072
:101AE0003B6F082B28BF0823FB6607F114017B6FAF
:101AF000FA6EB86803F018FB7A6FFB6E13447B67CD
:101B00003A6FFB6ED31A3B6707F14C0307F14002B3
:101B100007F11400F96E00F011FF3B6F002BDFD1CD
:101B2000B86803F031FA00BF7837BD4680BD80B495
:101B300083B000AF78607B68DB6801225A7100BF18
:101B40000C37BD465DF8047B7047000080B582B05D
:101B500000AF4FF0FF337B60FFF7DCFE0421094844
:101B600000F07CFD78607B68002B03DA0649412099
:101B7000FFF782FC0348FFF7DAFF00BF0837BD46D6
:101B800080BD00BF04080600B8D4050080B582B04F
:101B900000AF786039607B681B681B6839687868BB
:101BA000984700BF0837BD4680BD80B582B000AF02
:101BB00078607B681B689B687868984700BF083727
:101BC000BD4680BD80B483B000AF78600B46FB702B
:101BD0007B68DB68FA781A7100BF0C37BD465DF888
:101BE000047B704780B483B000AF78607B68DB68AB
:101BF0001B7918460C37BD465DF8047B704780B4EE
:101C000083B000AF78607B68DB685B7918460C377F
:101C1000BD465DF8047B704780B584B000AF786046
:101C200039600C4B00221A700B4803F003F9F8607E
:101C3000FB68002B01D0FB6808E0084803F00AFDB0
:101C4000074A084BD31ADB08BB600023184610373D
:101C5000BD4680BD84E600201408060014D50500AA
:101C6000040806004C07060080B400AF044A054B88
:101C7000D31ADB081846BD465DF8047B704700BFE9
:101C8000040806004C07060080B586B000AF7860F7
:101C90000B46FB70FB78002B1FD0FFF7E5FF386188
:101CA00000237B6113E07B699B000E4A1344FB60B9
:101CB000FB681B881A467B681B689A4204D17B68C4
:101CC0007A691A60002309E07B6901337B617A69D4
:101CD0003B699A42E7D3052300E0002318461837F2
:101CE000BD4680BDA461002080B584B000AF78609F
:101CF0000B46FB70FA783B1D11461846FFF7C4FFF0
:101D00000346002B07D17B68DB00054A1344FB60C8
:101D1000FB681B6800E0002318461037BD4680BDF5
:101D20004C07060080B485B000AF78600B46FB70AE
:101D30007B68DB00144A1344BB60FB78013B032B38
:101D400018D801A252F823F0591D03005F1D0300AB
:101D5000651D03006D1D03000223FB730DE00423CA
:101D6000FB730AE0BB681B79FB7306E0BB685B7919
:101D7000FB7302E00023FB7300BFFB7B18461437A4
:101D8000BD465DF8047B70474C07060080B485B003
:101D900000AF786039600023FB737B681B7803F029
:101DA0000403DBB2002B23D07B681B78C3F3010351
:101DB000DBB2012B02D0022B0CD017E03B681B6872
:101DC0007A681288C2F38312D2B213449A1C3B6819
:101DD0001A600BE03B681B687A685288C2F389126C
:101DE00092B213449A1C3B681A6000BF0123FB7334
:101DF000FB7B18461437BD465DF8047B7047000036
:101E000080B58AB000AF0023FB843A4802F0C1F9E4
:101E1000394802F0BEF9394B9B683B61384B1B686F
:101E2000BB613A69BB69134002339B00334A1344D8
:101E300004333B6207F110031946386AFFF7A6FF27
:101E40000346002B09D03A69BB69134002339B005B
:101E50002A4A134404333B62ECE700BF0023FB61D2
:101E600011E03B695A1C3A61BA691340FA69920061
:101E7000391D0A44214902339B000B445B681360FF
:101E8000FB690133FB61FB69012BEAD93B79C3F3A1
:101E90000103DBB2012B0DD0022B16D17B89FB8411
:101EA000FB88C3F389139BB203339A083B6913443D
:101EB0003B6110E07B89FB84BB88C3F38313DBB2F7
:101EC0001A463B6913443B6105E00E494FF4C2706A
:101ED000FFF7D2FA00BF084802F068F978617B6921
:101EE000002B02D03B69054A9360FB8C18462837CB
:101EF000BD4680BD9CEA002098EA002084E60020D0
:101F00000860002024D5050080B584B000AF002112
:101F1000074802F08EF8F860FB68BB60BB6883F38B
:101F200010037B607B6818461037BD4680BD00BF3C
:101F3000A0EA002080B588B000AFF860B9607A6090
:101F40003B60FB681B0CFB61FFF7DEFFB861FFF72E
:101F50008BFE0246FB69934204D3224940F2A9104A
:101F6000FFF78AFABB6919043B685A1CBB6A134025
:101F7000FA690A431C4902339B000B445A603A68D1
:101F8000BB6A134002339B00174A134404337B613E
:101F9000FB6803F00703D9B27A69137861F3C503CC
:101FA00013707B6803F00F03D9B27A69138861F369
:101FB00089131380BB68C3F315017A69136861F351
:101FC0009F2313607A691378012161F30103137071
:101FD0007A6913786FF38203137000BF2037BD4610
:101FE00080BD00BF24D5050084E6002080B400AF8A
:101FF00000BFBD465DF8047B7047000080B58CB023
:1020000000AFF860B9601346FB71FB680233BB6236
:10201000012387F827300023FB7607F11B031846BE
:1020200001F09AFF384B5A68BB681A60374B1A6840
:10203000354B9968344B5B68CB1A13440133FB6210
:1020400014E00121324802F057F8FFF7D9FEF86199
:10205000F9692F4802F050F82C4B1A682A4B9968FE
:10206000294B5B68CB1A13440133FB62BA6AFB6AE3
:102070009A42E6D897F82730002B3BD000237B61AB
:10208000FB79002B11D03B7D012262F301033B75EC
:102090003B7D43F004033B75FB6803F00F03DAB2AA
:1020A000BB8A62F38913BB8210E03B7D022262F39C
:1020B00001033B753B7D43F004033B75FB68C3F3B1
:1020C00009039AB2FB8A62F38F13FB820E4B5A68A4
:1020D0000E4B1B68134002339B000B4A134404331E
:1020E0003B627A693B6A1A60074B5A68BB6A1344C1
:1020F000054A5360FB7E184601F044FF97F82730ED
:1021000018463037BD4680BD84E6002008600020B8
:10211000A0EA002080B58AB002AFF860B9607A60AA
:102120003B60214B1B687B6107F1100301221946BC
:102130003868FFF763FF0346002B24D03B69023366
:10214000FB610023BB6111E0BB699B007A681A4404
:10215000FB69591CF96179690B4012681349023314
:102160009B000B445A60BB690133BB61BA693B6891
:102170009A42E9D33A697B69009313463A68B96891
:10218000F868FFF7D7FE094B1B78002B05D000BF7E
:1021900000F070F80346002BFAD1FFF727FF00BFCD
:1021A0002037BD4680BD00BF0860002084E60020C7
:1021B00080B582B000AF78603960002300223968B2
:1021C0007868FFF7A7FF00BF0837BD4680BD80B520
:1021D00086B000AFF860B9607A607B687B6107F118
:1021E00014020123B968F868FFF794FF00BF18379D
:1021F000BD4680BD80B586B000AFF860B9607A603A
:102200003B607B683B613B687B6107F11002022306
:10221000B968F868FFF77EFF00BF1837BD4680BD7C
:1022200080B588B000AFF860B9607A603B607B68C9
:102230007B613B68BB61BB6AFB6107F1140203234E
:10224000B968F868FFF766FF00BF2037BD4680BD5C
:1022500080B400AF064B9A68054B5B689A420CBF8E
:1022600001230023DBB21846BD465DF8047B7047AE
:1022700084E6002080B598B000AFFFF7E9FF034681
:10228000002B01D00023ABE1924B0022C3F81824AD
:10229000BFF34F8F00BF8F4B9B683B618E4B1B681A
:1022A0003B643A693B6C134002339B00894A1344F8
:1022B00004337B640023FB650023BB650023FB63C1
:1022C00007F110031946786CFFF760FD0346002BF9
:1022D00019D0804BD3F81834002B14D17D4B5A6899
:1022E0003B699A4205D87B4B5B687A4A936000232E
:1022F00076E13A693B6C134002339B00754A134404
:1023000004337B64DCE700237B6511E03B695A1CE6
:102310003A613A6C13407A6D9200391D0A446D4956
:1023200002339B000B445B6813607B6D01337B655C
:102330007B6D012BEAD93B7903F00303DBB2022B5F
:1023400040F09280FB88C3F389139BB27B63FB88C8
:10235000C3F389139BB2502B28BF50239BB23B631E
:102360003B6BC3F309039AB2FB8862F38F13FB80C4
:102370003B6B0833FB623B79C3F3C203DBB2FB6305
:10238000F96A564802F062FDF865FB6D002B00F01B
:10239000C680F86D02F0E8FD391DBB6D0822F86DAE
:1023A00002F0A2FEBB6D0833BB653B69DA433B6CB0
:1023B000134001339B00BB623A6BBB6A9A423DD922
:1023C000BB6A002B08D03A693B6C134002339B0078
:1023D000404A1344043300E0414B3B62BB6A002B8C
:1023E00002D0BB6ADBB201E03B6BDBB2FB77BB6ABE
:1023F000002B01D03A4B00E00023BB61BB6A002BED
:1024000006D03B6BDAB2BB6ADBB2D31ADBB200E0B8
:102410000023FB75FA7FBB6D396AF86D02F064FE2C
:10242000FB7FBA6D1344BB65BB69002B15D0FA7DE9
:10243000BB6DB969F86D02F057FE0EE03A693B6C6E
:10244000134002339B00234A134404337B62BB6D69
:102450003A6B796AF86D02F047FE7B6B03339A089A
:102460003B6913443B615AE03B7903F00303DBB261
:10247000012B54D1BB88C3F38313DBB2062B28BFD7
:102480000623DAB2BB8862F38913BB80BB88C3F32F
:102490008313DBB20233BB633B79C3F3C203DBB20A
:1024A000FB63BB6B9B0019460C4802F0CFFCF86540
:1024B000FB6D002B33D0F86D02F056FD391DBB6D5E
:1024C0000822F86D02F010FEBB6D0833BB650023D7
:1024D0007B651CE084E600200860002014080600EC
:1024E00090E600203B695A1C3A613A6C1340023373
:1024F0009B003D4A1344191DBB6D0422F86D02F088
:10250000F3FDBB6D0433BB657B6D01337B65BB881D
:10251000C3F38313DBB21A467B6D9342E2D3FB6DA8
:10252000002B3DD0304BD3F810343B652E4BD3F805
:102530001834002B1BD0F86D02F026FD4AE0002372
:1025400087F84F30386DFFF75AFB0346002B02D057
:10255000012387F84F3097F84F30002B03D0F96DE7
:10256000386DFFF713FB3B6DDB681B683B653B6D0C
:10257000002BE4D1F86D02F007FD0023FB70FB1C7B
:10258000184601F0E9FC184BD3F81834002B02D19F
:102590003B69154A9360FB78184601F0F3FC19E09B
:1025A000114BD3F81034BB6406E0B86CFFF7FDFAAA
:1025B000BB6CDB681B68BB64BB6C002BF5D10B4AA2
:1025C0000B4BD31ADB081B0443F0020309491846DE
:1025D000FFF7EEFDFFF73CFE034683F00103DBB29D
:1025E00018466037BD4680BD84E6002074070600AB
:1025F0004C07060078D5050080B584B000AF0023F5
:10260000FB6020E0144BD3F81034BB600123FB7156
:102610000EE0B868FFF7E6FA03461A46FB689342F5
:1026200002D10023FB7106E0BB68DB681B68BB605E
:10263000BB68002BEDD1FB79002B01D0FB6807E0D4
:10264000FB680133FB60FB68092BDBDD4FF0FF33D8
:1026500018461037BD4680BD84E6002080B584B0A2
:1026600000AF78600B46FB70FFF7C6FFF860FB68B1
:10267000B3F1FF3F01D1FB6822E0FB68DBB21946F2
:102680007868FFF79FFA104BD3F81034002B08D16D
:102690000D4A7B68C2F810347B68DB6800221A6040
:1026A0000DE0094BD3F81034DA687B68DB681268F8
:1026B0001A60054BD3F81034DB687A681A60FB683F
:1026C00018461037BD4680BD84E6002080B483B034
:1026D00000AF7860396000BF0C37BD465DF8047B01
:1026E0007047000090B585B002AF786039607B68B4
:1026F000DB88002B0AD07B68DB881A461F4B0093CF
:1027000013461F4A1F49386801F0ECFF7B681B7AAB
:10271000052B2ED07B685B7A002B12D07B689B88C0
:102720001A467B681B7A19461046FFF7FBFA0346E8
:102730001A46154B53F822301A461449386801F0EE
:10274000D1FF7B681B6819463868FFF7BFFF7B68BD
:102750001B7A1A460E4B53F822407B689B88002157
:102760001846FFF7C1FA034622460A49386801F0C5
:10277000B9FF00BF0C37BD4690BD00BFACD505000A
:10278000BCD50500F4D50500206000200CD605005E
:102790000C60002010D6050080B584B000AFF86052
:1027A000B9601346FB71FB681B7A052B0FD0FB68E1
:1027B0005B7A002B06D00D4B1B681A460C49B86893
:1027C00001F090FF0B49B86801F08CFF06E0FB793F
:1027D000002B03D00749B86801F084FFB86801F006
:1027E0005FFF00BF1037BD4680BD00BF20600020E6
:1027F0000CD605001CD60500B0B58AB004AFF86051
:10280000B9607A603B60BB6A1B7BFB75BB6A0022C8
:102810001A73B96A3868FFF765FF7B68062B7FD8A3
:1028200001A252F823F000BF452803004F280300FF
:102830005F2803007328030091280300B9280300D0
:10284000E9280300F968B86A01F04CFF69E0BB6849
:102850001B681A46F968B86A01F044FF61E0BB687A
:102860001A68BB6804331B68F968B86A01F03AFF5C
:1028700057E0BB681A68BB6804331968BB68083343
:102880001B6800930B46F968B86A01F02BFF48E01B
:10289000BB681968BB6804331868BB6808331B68D9
:1028A000BA680C3212680192009303460A46F9682E
:1028B000B86A01F017FF34E0BB681868BB680433DE
:1028C0001C68BB6808331B68BA680C321268B968A8
:1028D0001031096802910192009323460246F9687B
:1028E000B86A01F0FFFE1CE0BB681C68BB680433DB
:1028F0001D68BB6808331B68BA680C321268B96877
:1029000010310968B8681430006803900291019290
:1029100000932B462246F968B86A01F0E3FE00E016
:1029200000BF0022B96A3868FFF736FFBB6AFA7D3C
:102930001A7300BF1837BD46B0BD00BF80B586B062
:1029400000AFF860B9607A603B60BB68082B5CD868
:102950003B681B7BFB743B6800221A7339687868FC
:10296000FFF7C0FE00237B6114E07A69BB689A42DE
:1029700009D2FA687B6913441B781A4625493868DE
:1029800001F0B0FE03E02449386801F0ABFE7B693A
:1029900001337B617B69072BE7D92049386801F057
:1029A000A1FE00237B6124E07A69BB689A4219D2B8
:1029B000FA687B6913441B78BB74BB7C7E2B0AD8F6
:1029C000BB7C0133164A13441B7803F09703002B9A
:1029D00001D0BB7C00E02E231A461249386801F072
:1029E00081FE03E01049386801F07CFE7B69013309
:1029F0007B617B69072BD7D9012239687868FFF79B
:102A0000CBFE3B68FA7C1A7300E000BF1837BD4666
:102A100080BD00BF20D6050028D605002CD60500B5
:102A2000AC05060030D6050034D6050080B582B06E
:102A300000AF204B7B607B6802221A617B68022218
:102A40005A617B681C4A9A617B681C4ADA617B6820
:102A50004FF400721A627B6800229A627B6800223F
:102A60005A627B680022DA627B68134A9A647B6848
:102A7000134ADA647B684FF400721A657B6800229F
:102A80009A657B6800225A657B680022DA657B685C
:102A900007330C49184629F0BFFF7B680A491846DE
:102AA00029F0BAFF7B6820229A7100BF0837BD4623
:102AB00080BD00BFE003012038D60500A4EA002055
:102AC000A4EC002044D6050048D6050080B588B0A7
:102AD00000AFF860B9607A600023BB61FB68DB6817
:102AE0007B61FB681B693B613A697B699A4205D946
:102AF0003A697B69D31A013BFB6107E0FB689A687E
:102B000039697B69CB1A1344013BFB61FB689A6806
:102B10007B69D31AFA69934228BF1346FB61FA69AD
:102B20007B68934228BF1346FB61FB685A687B6948
:102B30001344FA69B968184629F024FFBA69FB6999
:102B40001344BB61BA68FB691344BB607A68FB69D4
:102B5000D31A7B607A69FB6913447B61FB689B68CD
:102B60007A699A4201D100237B61FB687A69DA6055
:102B70007B68002BB5D1BB6918462037BD4680BDA8
:102B800080B588B000AFF860B9607A60FB68DB6838
:102B9000FB61FB689A68FB69D31ABB61BA697B6801
:102BA0009A420ED9FB685A68FB6913447A68B9687F
:102BB000184629F0E7FEFA697B681A44FB68DA6078
:102BC0001AE0BB697B61FB685A68FB6913447A6948
:102BD000B968184629F0D6FE7A68BB69D31A7B61BA
:102BE000FB685868BA68BB6913447A69194629F0CA
:102BF000C9FEFB687A69DA6000BF2037BD4680BD38
:102C000080B487B000AF78607B681B693B617B68EC
:102C1000DB68FB603A69FB689A4208D87B689A686F
:102C2000FB68D21A3B691344013B7B6104E03A69BB
:102C3000FB68D31A013B7B617B6918461C37BD4694
:102C40005DF8047B7047000080B588B000AFF86085
:102C5000B9607A60BB68BB61FB685A1C13465B00B5
:102C60001344DB001F4A13447B617B695B69022BC1
:102C700029D0022B2ED8002B02D0012B13D029E013
:102C80007869FFF7BDFF38613A697B689A4202D2E2
:102C90000023FB6121E07B68FB617A68B969786990
:102CA000FFF76EFF19E07869FFF7AAFF38617A68CD
:102CB0003B69934228BF1346FB61FA69B969786999
:102CC000FFF75EFF09E07A68B9697869FFF7FEFEF1
:102CD000F86102E00023FB6100BFFB691846203762
:102CE000BD4680BDE003012080B500AFFFF79EFE2A
:102CF00000BF80BD80B582B000AF78607B681B6884
:102D0000184600F0EDF80346002B04D10B494FF4B0
:102D1000F670FEF7B1FB7B681B681F2B02D84FF0E3
:102D2000A04306E07B681B6803F01F027B681A6003
:102D3000034B18460837BD4680BD00BF50D605007E
:102D40000003005080B584B000AF7860084611469B
:102D50001A460346FB700B46BB7013467B703B1D47
:102D60001846FFF7C7FFF860FA78BB785B001A4394
:102D70007B789B001A433B7E1B0242EA03013B7FA8
:102D80001B047A681943FB6802F5E07243F82210CD
:102D900000BF1037BD4680BD80B584B002AF7860FB
:102DA000002301930023009300230122012178686E
:102DB000FFF7C8FF00BF0837BD4680BD80B584B0AF
:102DC00002AF78600B46FB70FB7800220192002274
:102DD0000092002200217868FFF7B4FF00BF083797
:102DE000BD4680BD80B584B000AF78603B1D1846FD
:102DF000FFF780FFF8607B68012202FA03F31946AF
:102E0000F86800F04FF800BF1037BD4680BD80B5B0
:102E100084B000AF78603B1D1846FFF76BFFF86089
:102E20007B68012202FA03F31946F86800F049F8BA
:102E300000BF1037BD4680BD80B584B000AF78605C
:102E40003B1D1846FFF756FFF860FB68D3F80435C2
:102E5000BB60BB68DA437B68012101FA03F31A40C7
:102E6000FB68C3F808257B6801229A40BB681A40BA
:102E7000FB68C3F80C2500BF1037BD4680BD80B588
:102E800082B000AF786039603B68002B03D178686E
:102E9000FFF7BDFF02E07868FFF7A4FF00BF083727
:102EA000BD4680BD80B483B000AF786039607B6878
:102EB0003A68C3F8082500BF0C37BD465DF8047BAF
:102EC000704780B483B000AF786039607B683A683F
:102ED000C3F80C2500BF0C37BD465DF8047B704776
:102EE00080B485B000AF78607B685B09BB6000236D
:102EF000FB60BB68002B03D0BB68012B04D007E04C
:102F00004FF0FF33FB6003E04FF6FF73FB6000BF41
:102F10007B6803F01F037B60FA687B6822FA03F387
:102F200003F00103002B14BF01230023DBB218467A
:102F30001437BD465DF8047B7047000080B582B051
:102F400000AF78607B68032B03D908494120FEF766
:102F500093FA074A7B6813441B7800211846FFF751
:102F60008EFF00BF0837BD4680BD00BF90D605006C
:102F7000D0D6050080B582B000AF78607B68032BA7
:102F800003D908494720FEF777FA074A7B681344BC
:102F90001B7801211846FFF772FF00BF0837BD46B6
:102FA00080BD00BF90D60500D0D6050080B582B0A8
:102FB00000AF00237B6005E07868FFF7DBFF7B68EC
:102FC00001337B607B68032BF6D900BF00BF083755
:102FD000BD4680BD80B582B000AF78607B68032BB2
:102FE00003D907495F20FEF747FA064A7B68134476
:102FF0001B781846FFF720FF00BF0837BD4680BD8D
:1030000090D60500D0D6050080B582B000AF002371
:103010007B6009E0094A7B6813441B781846FFF778
:10302000BBFE7B6801337B607B68032BF2D9FFF723
:10303000BDFF00BF0837BD4680BD00BFD0D605002C
:1030400080B582B000AF00237B600AE0094A7B684C
:1030500013441B7803211846FFF7B0FE7B68013349
:103060007B607B68032BF1D900BF00BF0837BD46EA
:1030700080BD00BFD4D6050080B582B000AF7860B7
:103080007B6803F00103002B01D0FFF7BDFF7B68D5
:1030900003F00203002B01D0FFF7D2FF00BF083777
:1030A000BD4680BD80B582B000AF01220021002066
:1030B000FEF7B4FB78607B68002B04D07B68072B9D
:1030C00001D07B681CE0072202210120FEF7A6FB4D
:1030D00078607B68002B04D07B68072B01D07B686D
:1030E0000EE0042202210020FEF798FB78607B6846
:1030F000002B04D07B68072B01D07B6800E0002305
:1031000018460837BD4680BD80B582B000AF0122A9
:1031100002210020FEF782FB78607B68002B04D040
:103120007B68072B01D07B681CE00722022101206D
:10313000FEF774FB78607B68002B04D07B68072B5C
:1031400001D07B680EE00A2200210020FEF766FB1A
:1031500078607B68002B04D07B68072B01D07B68EC
:1031600000E0002318460837BD4680BD80B584B016
:1031700000AF786039607B681B88102B02D0112B60
:1031800018D02FE0194B1B68002B0DD1FFF78AFFD9
:10319000F860FB68002B07D0154B1B68002B03D091
:1031A000134B1B68F8689847104B1B6801330F4A94
:1031B000136017E00D4B1B68013B0C4A13600B4B6F
:1031C0001B68002B0DD1FFF79FFFF860FB68002BF9
:1031D00007D0074B1B68002B03D0054B1B68F86812
:1031E000984700BF00BF1037BD4680BDA8EE002045
:1031F000A4EE002080B483B000AF78607B6803F059
:103200000303002B0CBF01230023DBB218460C374D
:10321000BD465DF8047B704780B483B000AF0346C1
:10322000FB71FB799AB2074B1B889A4203D2FB7958
:103230000133DBB200E0002318460C37BD465DF8D1
:10324000047B7047B8EE002080B582B000AF0A4B17
:103250001B78FB71094B1B78DBB21846FFF7DCFFCC
:1032600003461A46FB7993420CBF01230023DBB2CD
:1032700018460837BD4680BDB4EE0020B5EE0020EC
:1032800080B483B000AF094B1B78FB71084B1B78EF
:10329000DBB2FA799A420CBF01230023DBB2184655
:1032A0000C37BD465DF8047B704700BFB4EE0020CC
:1032B000B5EE002080B584B000AF03463A60FB80D5
:1032C0000B46BB80BB8801339BB2DB00FB813868B7
:1032D000FFF790FF034683F00103DBB2002B01D020
:1032E000072317E00D4A3B681360FB893A681344D3
:1032F0000B4A13600B4B00221A700B4B00221A7002
:103300000A4AFB8813800A4ABB881380094B0022B3
:103310001A80002318461037BD4680BDACEE002051
:10332000B0EE0020B5EE0020B4EE0020B6EE002096
:10333000B8EE0020BAEE002080B483B000AF134B8B
:103340001B78DBB2FB80124B1B78DBB2BB80114BCE
:103350001A88B988FB88994204D3B988FB88CB1AAC
:103360009BB209E00B4B1988FB88CB1A99B2BB883A
:103370000B449BB201339BB2D31A7B807B881846E7
:103380000C37BD465DF8047B704700BFB4EE0020EB
:10339000B5EE0020B8EE002080B483B000AF154B2E
:1033A0001B78DBB2FB80144B1B78DBB2BB80BA8886
:1033B000FB889A4204D3BA88FB88D31A9BB209E0EF
:1033C0000E4B1A88FB88D31A9AB2BB8813449BB25F
:1033D00001339BB27B800A4B1B887A889A4202D9C0
:1033E000074A7B88138000BF0C37BD465DF8047B1D
:1033F000704700BFB4EE0020B5EE0020B8EE00200C
:10340000BAEE002080B586B000AFF8600B467A6057
:103410007B81314B1B887A899A4256D84FF6FF73CD
:103420007B8200237B7407F11103184600F094FDA2
:10343000FFF70AFF0346002B0FD1284B1B78DBB2A6
:103440007B82264B1B78DBB21846FFF7E5FE03466E
:103450001A46224B1A70FFF79FFF7B7C184600F03C
:1034600091FD7B8A4FF6FF7293422BD01C4B1A685A
:103470007B8ADB0013447A681A60FB68002B17D044
:103480007B89002B14D0174B1B687A8A1249098854
:1034900001FB02F213447A89F968184629F072FA9E
:1034A0000F4B1A687B8ADB0013447A899A8006E006
:1034B0000B4B1A687B8ADB00134400229A8000239E
:1034C0007B6104E004237B6101E009237B617B696C
:1034D00018461837BD4680BDB6EE0020B5EE002078
:1034E000ACEE0020B0EE002080B582B000AF00232B
:1034F000FB71FB1D184600F02FFD094B1B68B3F153
:10350000FF3F04D0064B1B680133054A1360FB796B
:10351000184600F037FD00BF0837BD4680BD00BF2C
:10352000BCEE002080B582B000AF0023FB71FB1D14
:10353000184600F011FD084B1B68002B04D0064B09
:103540001B68013B044A1360FB79184600F01AFD22
:1035500000BF0837BD4680BDBCEE002080B400AF80
:10356000054B1B68002B14BF01230023DBB2184658
:10357000BD465DF8047B7047BCEE002080B584B08A
:1035800000AF29E01D4B1B78DBB2FB811C4B1B6895
:10359000FA891C49098801FB02F21344BB601A4BEB
:1035A0001A68FB89DB0013449B88FB80164B1A6862
:1035B000FB89DB0013441B683B60FA883B681146BB
:1035C000B86898470D4B1B78DBB21846FFF724FE0E
:1035D00003461A46094B1A70FFF7C0FF034683F0F3
:1035E0000103DBB2002B04D0FFF74AFE0346002B99
:1035F000C8D000BF1037BD4680BD00BFB4EE00206C
:10360000B0EE0020B6EE0020ACEE002080B483B017
:1036100000AF0346FB7197F90730002B0BDBFB79FA
:1036200003F01F02074997F907305B09012000FAF0
:1036300002F241F8232000BF0C37BD465DF8047B41
:10364000704700BF00E100E080B483B000AF0346E4
:10365000FB7197F90730002B0CDBFB7903F01F029D
:10366000074997F907305B09012000FA02F240335D
:1036700041F8232000BF0C37BD465DF8047B70473E
:1036800000E100E080B483B000AF03463960FB7115
:1036900097F90730002B0ADB3B68DAB20C4997F93F
:1036A00007305201D2B20B4483F800230AE03B6892
:1036B000DAB20849FB7903F00F03043B5201D2B29E
:1036C0000B441A7600BF0C37BD465DF8047B70478B
:1036D00000E100E000ED00E080B582B000AF0346FD
:1036E0000A46FB711346BB71BB79012B02D9BB792A
:1036F000032B09D9BB79042B02D9BB79072B03D93A
:1037000007496B20FDF7B8FEBA7997F907301146E3
:103710001846FFF7B7FF00BF0837BD4680BD00BFA2
:10372000D8D6050080B582B000AF0346FB7197F98B
:1037300007301846FFF76AFF00BF0837BD4680BD57
:1037400080B584B000AF78607B68002B0AD0074B4F
:1037500043F00103FB607B689B01BB60FB68B868BA
:10376000984700E000BF1037BD4680BDF0D7050088
:1037700080B485B000AFF860B9607A60FB68BA6861
:1037800002F5A872796843F8221000BF1437BD46CD
:103790005DF8047B704780B483B000AF7860396017
:1037A0007B683A6802F5A87253F8223018460C3745
:1037B000BD465DF8047B704780B483B000AF78608D
:1037C00039607B683A68C3F8042300BF0C37BD46F4
:1037D0005DF8047B704780B483B000AF78603960D7
:1037E0007B683A68C3F8082300BF0C37BD465DF814
:1037F000047B704780B483B000AF78600B467B8059
:103800007B887A6813441B6818460C37BD465DF800
:10381000047B704780B485B000AF78600B467B8036
:103820007B887A68134400221A607B887A68134484
:103830001B68FB60FB6800BF1437BD465DF8047B66
:10384000704780B483B000AF78607B68D3F80435EC
:1038500018460C37BD465DF8047B704780B582B0D2
:1038600000AF786039603B68B3F5805F04D30649E8
:103870004FF4BE70FDF700FE7B683A68C3F8082578
:1038800000BF0837BD4680BD18D7050080B483B09F
:1038900000AF78600B46FB70FA787B6813441A46D9
:1038A0000123136000BF0C37BD465DF8047B7047F1
:1038B00080B483B000AF786039607B683A68C3F841
:1038C000442300BF0C37BD465DF8047B704780B4CD
:1038D00083B000AF786039607B683A68C3F84823EA
:1038E00000BF0C37BD465DF8047B704780B586B0DD
:1038F00000AFF860B9607A60FB68002B03D13349F0
:103900005520FDF7B9FDBB68002B03D12F49562088
:10391000FDF7B2FD7B68002B03D12C495720FDF742
:10392000ABFDFB685B791946294A7B6842F8213078
:10393000FB685B79274ADB0013441B79002B0ED010
:1039400008237B61244A254BD31ADB081B0443F070
:10395000020323491846FEF72BFC7B6932E0FB6823
:103960001A68BB681B8819461046FFF777FFFB688B
:1039700093F90420BB689B7819461046FFF7ACFE0C
:10398000FB6893F904301846FFF7CCFEFB685B79BF
:10399000104ADB00134401221A71FB685B79194657
:1039A0000C4AFB6842F8313000237B610A4A0B4B1A
:1039B000D31ADB081B0443F003030A491846FEF739
:1039C000F7FB7B6918461837BD4680BD58D7050000
:1039D000C0EE0020C4EE00207C0706004C07060065
:1039E000A0D70500C4D7050080B582B000AF7860CD
:1039F0007B68002B03D107498720FDF73DFD7B68DD
:103A00001B6800211846FFF741FF00BF0837BD467D
:103A100080BD00BF58D7050080B586B000AFF86004
:103A2000B9607A60FB70FB68002B03D11F499620B8
:103A3000FDF722FD4FF48032BB6802FA03F37B618D
:103A4000BB6850339BB29B007B827B6823F07F4333
:103A50007B60FB681B6879691846FFF7BCFEFB6852
:103A60001B6879691846FFF732FFFB681B687A8A82
:103A700011461846FFF7CEFEFB681B687A68B968E6
:103A80001846FFF775FEFB681B6879691846FFF753
:103A90000FFFFB78002B05D0FB681B68796918467F
:103AA000FFF78AFE00BF1837BD4680BD58D7050016
:103AB00080B584B000AFF860B9601346FB71FB6855
:103AC000002B03D10B49A920FDF7D6FCFB681B682E
:103AD000B9681846FFF7ECFEFB79002B05D0FB68B0
:103AE0001B68B9681846FFF767FE00BF1037BD4670
:103AF00080BD00BF58D7050080B582B000AF7860A8
:103B000039607B68002B03D10949B320FDF7B4FC71
:103B10007B681B6839681846FFF7D9FE7B681B680D
:103B200039681846FFF757FE00BF0837BD4680BD0D
:103B300058D7050080B582B000AF78600B467B8017
:103B40007B68002B03D10E49BA20FDF795FC7B68FA
:103B50001B687A8811461846FFF74CFE0346002B77
:103B600008D07B681B687A8811461846FFF752FE1A
:103B7000012300E0002318460837BD4680BD00BF82
:103B800058D7050080B483B000AF786039607A6898
:103B90003B68D31A23F07F4318460C37BD465DF8C7
:103BA000047B704780B58AB000AFF860B9607A6076
:103BB0003B60FB68002B03D15549CD20FDF75CFC31
:103BC0004FF48032BB6802FA03F37B62BB68503368
:103BD0009BB29B007B847B6823F07F437B60796A88
:103BE000F868FFF789FFFB681B681846FFF729FE96
:103BF000F861FB681B68B9681846FFF7CCFDB8612F
:103C0000FB681B68FA69B9681846FFF7B1FDFB68E5
:103C10001B687A8C11461846FFF7FCFDF969B869F4
:103C2000FFF7B0FF0346012B09D11020FFF788FDF5
:103C3000FB681B687A8C11461846FFF7EBFDFB68A2
:103C40001B681846FFF7FDFDF861F9697868FFF712
:103C500099FF7861FB681B68796A1846FFF728FEB0
:103C60007B69012B15D1FB6818687B6801331A4604
:103C7000B968FFF77DFD1020FFF762FDFB681B6848
:103C80001846FFF7DEFD0246FB69934235D00D234F
:103C900039E0FB681B687A68B9681846FFF768FD69
:103CA000FB681B681846FFF7CCFDF8617B68013B99
:103CB000F9691846FFF766FF78613B68C3F1FF13A7
:103CC00003F57F437A699A4201D90D231BE07B6992
:103CD000002B12D1FB6818687B6801331A46B9685B
:103CE000FFF746FDFB681B681846FFF7AAFD024672
:103CF000FB69934201D00D2305E00122796AF8683F
:103D0000FFF7D6FE002318462837BD4680BD00BF0A
:103D100058D7050080B582B000AF78600B46FB70C5
:103D2000FB781A4602217868FFF7C2FE00BF083709
:103D3000BD4680BD80B582B000AF78604FF482711F
:103D40007868FFF7F7FE034618460837BD4680BD82
:103D500080B582B000AF786039604FF480323B6844
:103D600002FA03F319467868FFF7C6FE00BF08376A
:103D7000BD4680BD80B584B000AF786039603B68D7
:103D800050339BB29B00FB81FB8919467868FFF793
:103D9000D1FE034618461037BD4680BD80B582B0BF
:103DA00000AF786039607B681B6839681846FFF798
:103DB000F2FC034618460837BD4680BD80B582B088
:103DC00000AF78607B681B681846FFF73AFD034632
:103DD00018460837BD4680BD80B582B000AF786018
:103DE0007B6893F904301846FFF72EFC00BF0837B4
:103DF000BD4680BD80B500AF034B1B68034A126807
:103E00001046984700BF80BDC0EE0020C4EE0020E1
:103E100080B483B000AF0346FB7197F90730002BE5
:103E200009DB0D4A97F90730134493F80033DBB2EE
:103E30005B09DBB209E0094AFB7903F00F03043B9D
:103E400013441B7EDBB25B09DBB218460C37BD4660
:103E50005DF8047B704700BF00E100E000ED00E08A
:103E600080B483B000AFEFF310833B603B687B60AE
:103E700072B600BF7B6818460C37BD465DF8047B00
:103E8000704780B400AF62B600BF00BFBD465DF8AA
:103E9000047B704780B584B000AF7860FFF7E0FF27
:103EA000F860164B9B68002B1BD1144B01229A60C3
:103EB000134BD3F88020134B1340104A1360104B60
:103EC000104AC3F880200E4BD3F884300B4A53605D
:103ED0000B4B4FF0FF32C3F884207B6800221A702E
:103EE00002E07B6801221A70FB68002B01D1FFF70A
:103EF000C8FF002318461037BD4680BD5804012076
:103F000000E100E0FC06FFBD80B584B000AF0346D1
:103F1000FB710F4B9B68002B15D0FB79002B12D146
:103F2000FFF79EFFF8600B4A094B1B681360094AB4
:103F3000074B5B685360064B00229A60FB68002BBE
:103F400001D1FFF79EFF002318461037BD4680BD04
:103F50005804012000E100E080B582B000AF786035
:103F600000F028F80346012B03D005494320FDF754
:103F700083FA7868FFF78EFF00BF0837BD4680BD23
:103F8000F8D7050080B582B000AF0346FB7100F0A2
:103F900011F80346012B03D005495120FDF76CFAB7
:103FA000FB791846FFF7B0FF00BF0837BD4680BD5C
:103FB000F8D7050080B485B000AFEFF305837B60D0
:103FC0007B68C3F30803FB60FB68002B0DD1EFF3A4
:103FD00014833B603B68BB60BB6803F00103002BAC
:103FE0000CBF01230023DBB200E001231846143785
:103FF000BD465DF8047B704780B584B000AFEFF339
:1040000005837B607B68C3F30803FB60FB68002BC0
:104010000AD0FB68103BBB60BB685BB21846FFF779
:10402000F7FE0346DBB200E00F2318461037BD460B
:1040300080BD90B486B000AF786039607B683A6824
:1040400053E8004F104643E8000191F0000FF7D10C
:104050007C613861F9607B6918461837BD4690BCB1
:10406000704790B486B000AF786039607B683A687A
:1040700053E8004F44EA020043E8000191F0000FCA
:10408000F6D17C613861F9603B6918461837BD4646
:1040900090BC704790B486B000AF786039607B68A0
:1040A0003A6853E8004F04EA020043E8000191F047
:1040B000000FF6D17C613861F9607B6918461837CA
:1040C000BD4690BC704790B486B000AF7860396050
:1040D0007B683A6853E8004F04EA020043E80001B5
:1040E00091F0000FF6D17C613861F9603B691846A8
:1040F0001837BD4690BC704790B486B000AF78606A
:1041000039607B683A6853E8004F04EB020043E8EB
:10411000000191F0000FF6D17C613861F9603B69D4
:1041200018461837BD4690BC704790B486B000AFB3
:10413000786039607B683A6853E8004FA4EB02006E
:1041400043E8000191F0000FF6D17C613861F9601D
:104150003B6918461837BD4690BC704790B486B08E
:1041600000AF786039607B683A6853E8004F94424A
:104170002CBFA01A204643E8000191F0000FF4D1B3
:104180007C613861F9603B6918461837BD4690BCC0
:10419000704780B582B000AF786001217868FFF782
:1041A00060FF034618460837BD4680BD80B582B023
:1041B00000AF786000217868FFF76CFF034618466F
:1041C0000837BD4680BD80B487B000AF78603960E5
:1041D0007B6853E8011F8AB2D889024498898242D9
:1041E00028BF121A1889824202BFBFF32F8F002303
:1041F00007E0C2EA010243E801200028E9D14FF0BC
:104200000103FB737861B9603A61BA683B681A6070
:10421000FB7BDBB218461C37BD465DF8047B70475C
:1042200080B485B000AF7860796851E8013FC3EA97
:10423000034341E80132002AF7D1FA60BB6000BFB6
:104240001437BD465DF8047B704780B487B000AF7B
:10425000786039607B6853E8021F1FFAA1F2D888A2
:10426000824202BFBFF32F8F00230DE0D8890244A2
:104270009889824228BF121AC1EA024243E802200A
:104280000028E8D14FF00103FB737861B9603A610F
:10429000BA683B681A60FB7BDBB218461C37BD4628
:1042A0005DF8047B704780B485B000AF78607968B2
:1042B00051E8023FC3EA234341E80232002AF7D122
:1042C000FA60BB6000BF1437BD465DF8047B7047E1
:1042D00080B485B000AFF860B96011461A460B464D
:1042E000FB801346BB80BB68002B01D10E231BE073
:1042F000FB88BA88B3FBF2F102FB01F29B1A9BB276
:10430000002B01D009230FE0FB68BA681A60FB6834
:1043100000225A60FB6800229A60FB68FA889A8142
:10432000FB68BA88DA81002318461437BD465DF869
:10433000047B704780B584B000AF786039603B681B
:1043400019467868FFF73FFF0346002B07D07B68CC
:104350001B683A6812881344FB60FB6800E0002386
:1043600018461037BD4680BD80B582B000AF78607A
:1043700039603B681A883B685B889A4204D1786848
:10438000FFF74EFF012300E0002318460837BD4623
:1043900080BD80B584B000AF786039603B68194655
:1043A0007868FFF752FF0346002B07D07B681B6835
:1043B0003A6852881344FB60FB6800E0002318460B
:1043C0001037BD4680BD80B582B000AF78603960DF
:1043D0003B681A883B685B889A4204D17868FFF78B
:1043E00062FF012300E0002318460837BD4680BD68
:1043F00080B584B000AF786039603B685B099B0092
:104400007A681A443B6803F01F03012101FA03F3A1
:1044100019461046FFF725FEF86000BF1037BD466D
:1044200080BD80B584B000AF786039603B685B09BF
:104430009B007A681A443B6803F01F03012101FACC
:1044400003F3DB4319461046FFF73DFEF86000BF5B
:104450001037BD4680BD80B483B000AF786039604E
:104460003B685B099B007A6813441A683B6803F059
:104470001F0322FA03F303F00103002B14BF0123EF
:104480000023DBB218460C37BD465DF8047B70474D
:1044900080B582B000AF78600B46FB707B68002B64
:1044A00003D10849E820FCF7E7FF7B68DA68FB786E
:1044B0007968098A01FB03F3134418460837BD469F
:1044C00080BD00BF48D8050080B582B000AF7860DD
:1044D00039607B68002B03D10849F520FCF7CCFF3D
:1044E0003B687A68D2689B1A7A68128AB3FBF2F347
:1044F000DBB218460837BD4680BD00BF48D805006E
:1045000080B584B000AF78607B68002B01D10E23AA
:1045100048E07B681B68002B03D12449FF20FCF78F
:10452000ABFF7B685B68002B04D120494FF480709F
:10453000FCF7A2FF7B689B68002B04D11B4940F26B
:104540000110FCF799FF7B68DB68002B04D1174949
:104550004FF48170FCF790FF7B681B8A002B04D11D
:10456000124940F20310FCF787FF7B689A687B686A
:104570005B68D31AFB737B681B687A6852681A60A1
:1045800006E07B681A681368591C1160FA7B1A7080
:10459000FB7B5A1EFA73002BF3D17B681B68002249
:1045A0001A71002318461037BD4680BD48D8050053
:1045B00080B584B000AF78607B68002B04D11D49C2
:1045C0004FF49270FCF758FF0023FB600023BB728E
:1045D00007F10A031846FFF7BFFC7B681B681A68DF
:1045E0007B685B689A421CD97B681B681A68013A31
:1045F0001A601B681B7819467868FFF749FFF86056
:104600007B689A687B681B681B68D31AFB727B689F
:104610001B681B79FA7A9A4203D97B681B68FA7A7D
:104620001A71BB7A1846FFF7ADFCFB6818461037C5
:10463000BD4680BD48D8050090B585B000AF786014
:1046400039607B68002B04D1144940F24710FCF715
:1046500013FF3B68002B04D110494FF4A470FCF702
:104660000BFF3B68FB600023FB7207F10B0318464E
:10467000FFF772FC7B681B681C68621C1A60F96893
:104680007868FFF721FF03462370FB7A1846FFF78F
:1046900079FC00BF1437BD4690BD00BF48D8050067
:1046A00080B582B000AF78607B68002B03D10C49E5
:1046B0003120FCF7E1FE7B689B68002B0CD07B6807
:1046C0005B697A6810697A6811687A6892689847B5
:1046D0007B6800229A6000E000BF0837BD4680BDBD
:1046E00094D805000EB480B585B000AF78607B68C3
:1046F000002B03D119494220FCF7BEFE7B685B69A1
:10470000002B03D115494320FCF7B6FE7B681B68DC
:10471000002B03D111494420FCF7AEFE7B685B6897
:10472000002B03D10D494520FCF7A6FEFB69002BA9
:104730000CD00023FB6007F12003FB6007F10C03A2
:104740001A46F969786800F0B1F900E000BF143743
:10475000BD46BDE8804003B0704700BF94D8050057
:1047600080B582B000AF78600B46FB70FB780A2BF7
:1047700003D10D217868FFF7F3FF7B681A687B6827
:104780009B68581C796888601344FA781A707B68B3
:104790009A687B685B689A4202D37868FFF780FF6B
:1047A00000BF0837BD4680BD80B586B000AFF86059
:1047B000B9607A603B6000237B613B6803F00103D2
:1047C000002B21D00AE0BB680133BB607B69013359
:1047D0007B61FB7C1946F868FFF7C2FFBB681B785A
:1047E000FB74FB7C002BEED106E07B68013B7B6019
:1047F0002021F868FFF7B4FF7A687B699A422BD9C9
:104800007B68002BF1D127E0BB68002B0BD0B86888
:1048100028F00AF9786106E07B68013B7B60202183
:10482000F868FFF79DFF7A687B699A420ED97B682A
:10483000002BF1D10AE0BB680133BB607B69013317
:104840007B61FB7C1946F868FFF78AFFBB681B7821
:10485000FB74FB7C002BEED100BF1837BD4680BD3A
:1048600080B588B000AFF860B9607A603B60BB6823
:10487000FB610123BB6107E0FA697B68B2FBF3F3DC
:10488000FB61BB690133BB61FA697B689A42F3D271
:104890003A68BB699A4201D93B68BB61FB6A03F085
:1048A0000103002B1FD1BB6A002B1CD0FB6A03F055
:1048B0000203002B05D03B68002B02D13023FB758F
:1048C00001E02023FB7507E0BB6A013BBB62FB7D77
:1048D0001946F868FFF744FFBB6A002B03D0BA699A
:1048E000BB6A9A42F0D30123FB613B68012B03D9D9
:1048F0003B68013B3B6009E0BA68FB69B2FBF3F33C
:104900003B613A697B689A4200D205E0FB697A68AC
:1049100002FB03F3FB61E8E7BA68FB69B2FBF3F360
:104920003B613B69FA6902FB03F3BA68D31ABB60C7
:10493000154A3B6913441B781946F868FFF710FFC6
:10494000FA697B68B2FBF3F3FB61FB69002BE3D1EF
:10495000FB6A03F00103002B11D0BB6A002B0ED0C1
:1049600006E0BB6A013BBB622021F868FFF7F8FE56
:10497000BB6A002B03D0BA69BB6A9A42F1D300BF6D
:104980002037BD4680BD00BF20D9050080B588B066
:1049900002AFF860B9607A603B60BB68002BB8BFBB
:1049A0005B423B6101237B6107E07B683A6992FBD4
:1049B000F3F33B617B6901337B617B683A699A421F
:1049C000F3DA3A687B699A4201D93B687B613B6ABA
:1049D000002B0AD0BB68002B04DB7B6A03F00403C6
:1049E000002B02D03B6A013B3B627B6A03F002036F
:1049F000002B02D03B68002B16D07B6A03F001032A
:104A0000002B11D13B6A002B0ED006E03B6A013B24
:104A10003B622021F868FFF7A3FE3B6A002B03D01E
:104A20007A693B6A9A42F1D3BB68002B07DABB680C
:104A30005B42BB602D21F868FFF792FE08E07B6ABD
:104A400003F00403002B03D02B21F868FFF788FE46
:104A50007B6A03F00203002B19D07B6A03F0010389
:104A6000002B14D13B68002B11D13B6A002B0ED0D8
:104A700006E03B6A013B3B623021F868FFF770FEBD
:104A80003B6A002B03D07A693B6A9A42F1D3B9683A
:104A90007B6A01933B6A00933B687A68F868FFF78A
:104AA000DFFE00BF1837BD4680BD000080B58EB068
:104AB00002AFF860B9607A60FB68002B04D1B64998
:104AC00040F25220FCF7D8FCFB685B69002B04D154
:104AD000B1494FF41570FCF7CFFCFB681B68002B45
:104AE00004D1AD4940F25520FCF7C6FCFB685B6879
:104AF000002B04D1A84940F25620FCF7BDFCBB684E
:104B0000002B00F09281BB681B7887F82F30BB68C0
:104B10000133BB6097F82F30002B00F07D8197F8B0
:104B20002F30252B40F06C8100233B620123BB62B8
:104B3000BB681B7887F82F3097F82F30302B0DD0BB
:104B4000302B1BDC2B2B11D02D2B17D13B6A43F0C4
:104B500001033B62BB680133BB6012E03B6A43F078
:104B600002033B62BB680133BB600AE03B6A43F06F
:104B700004033B62BB680133BB6002E00023BB62FD
:104B800000BFBB6A002BD3D10023FB6197F82F3005
:104B90002A2B0CD17B681B68191D7A6811601B6871
:104BA000FA691344FB61BB680133BB601AE0BB6860
:104BB0001B7887F82F3097F82F302F2B12D997F8C2
:104BC0002F30392B0ED8BB680133BB60FA6913460E
:104BD0009B0013445B001A4697F82F301344303B78
:104BE000FB61D3E700237B62BB681B7887F82F301B
:104BF00097F82F302E2B1DD1BB680133BB60BB68EB
:104C00001B7887F82F3097F82F302F2B12D997F871
:104C10002F30392B0ED8BB680133BB607A6A13463C
:104C20009B0013445B001A4697F82F301344303B27
:104C30007B62E4E7BB681B7887F82F3097F82F304A
:104C40006C2B03D097F82F30682B07D1BB6801334A
:104C5000BB60BB681B7887F82F30EFE797F82F30E1
:104C6000252B00F0C380252BC0F2C580782B00F3E4
:104C7000C280582BC0F2BF80583B202B00F2BB8073
:104C800001A252F823F000BF734D0300F74D03005B
:104C9000F74D0300F74D0300F74D0300F74D0300F8
:104CA000F74D0300F74D0300F74D0300F74D0300E8
:104CB000F74D03000D4D03002B4D0300F74D03008E
:104CC000F74D0300F74D0300F74D03002B4D030094
:104CD000F74D0300F74D0300F74D0300F74D0300B8
:104CE000F74D0300F74D0300B94D0300F74D0300E6
:104CF000F74D03009D4D0300F74D03004F4D03009A
:104D0000F74D0300F74D0300734D03007B681B68EC
:104D1000191D7A6811601B68BB62BB6AFB75FB7D5D
:104D20001946F868FFF71CFD66E07B681B68191DD3
:104D30007A6811601B68BB623B6A0193FB69009350
:104D40007B6A0A22B96AF868FFF720FE54E07B68A4
:104D50001B68191D7A6811601B68BB62B96A3B6ADF
:104D60000193FB6900937B6A0A22F868FFF778FDDC
:104D700042E07B681B68191D7A6811601B68BB6282
:104D8000B96A3B6A0193FB6900937B6A1022F86859
:104D9000FFF766FD30E000BFD8D805007B681B68D0
:104DA000191D7A6811601B68BB613B6AFA69B969B1
:104DB000F868FFF7F9FC1FE07B681B68191D7A682B
:104DC00011601B68BB623021F868FFF7C9FC7821CD
:104DD000F868FFF7C5FCB96A002301930823009324
:104DE00008231022F868FFF73BFD05E02521F8684D
:104DF000FFF7B6FC00E000BFBB680133BB6005E015
:104E000097F82F301946F868FFF7AAFCBB681B78A3
:104E1000002B7FF478AE00E000BFFB681B7B002B0B
:104E200004D0F868FFF73CFC00E000BF3037BD4617
:104E300080BD00BF80B582B000AF78607868FFF7B2
:104E40005FFB034618460837BD4680BD80B58AB073
:104E500000AF786039607B681B8A043BFB613A686D
:104E6000FB691344DA1CFB69B2FBF3F3FB76786849
:104E7000FFF79EFB78617B69002B01D1002337E0AF
:104E80007B6900221A717B6901225A71FB699AB20F
:104E90007B69DA807B697B62FB7E013B3B617B6ADD
:104EA0007A681A6000233B621DE07868FFF780FB98
:104EB000F860FB68002B0ED07B695B790133DAB2B6
:104EC0007B695A717B6AFA681A60FB687A681A60B3
:104ED000FB687B6204E0786900F00EF8002307E0CD
:104EE0003B6A01333B623A6A3B699A42DDD37B6994
:104EF00018462837BD4680BD80B58AB000AF7860BF
:104F00007B68FB61FB695B79FB767B683B62FB7EC0
:104F1000013B7B6100237B6205E03B6A1B683B62CF
:104F20007B6A01337B627A6A7B699A42F5D33B6A7A
:104F30001B683B617B683B6200237B620BE03B6A42
:104F40001B68FB60396A3869FFF776FBFB683B62D8
:104F50007B6A01337B62FB7E7A6A9A42EFD300BFA1
:104F600000BF2837BD4680BD80B584B000AF7860F3
:104F70007B68FB60FB68043301211846FFF7BCF82F
:104F800000BF1037BD4680BD80B586B000AF7860E9
:104F90007B687B617B69043301211846FFF7C5F804
:104FA0000346FB6007F10C033B613B691B78002B58
:104FB00002D17868FFF7A0FF00BF1837BD4680BD5B
:104FC00080B590B000AFF860B9607A603B60FB6874
:104FD000002B03D14349B620FCF74EFAFB687B62F5
:104FE000FB68FB637B6ADB881A467B6A5B7903FBA1
:104FF00002F3043B3B623A683B6A9A4203D3394965
:10500000C420FCF739FA7B6ADB88FB613B681A1D18
:10501000FB69B2FBF3F3BB633B680433FA69B3FB90
:10502000F2F2F96901FB02F29B1A7B637B681A6852
:105030003B6813443A6A9A4203D23A6A3B68D31AED
:1050400001E07B681B683B637B683A6B1A6005E094
:10505000FB6B1B68FB63BB6B013BBB63BB6B002B38
:10506000F6D10023FB62FA697B6BD31ABB62BA6A82
:105070003B6B934228BF1346BB622AE0BA68FB6AC7
:105080001344BB61FA6B7B6B134404337B6197F869
:105090004830002B05D0BA6A7969B86927F072FCEC
:1050A00004E0BA6AB969786927F06CFC00237B6375
:1050B000FB6B1B68FB633A6BBB6AD31A3B63FA6AF0
:1050C000BB6A1344FB62FA693B6B934228BF1346E9
:1050D000BB623B6B002BD1D100BF00BF4037BD4648
:1050E00080BD00BF30D9050080B588B002AFF86040
:1050F000B9607A603B607B687B6107F11402002332
:1051000000933B68B968F868FFF75AFF7B697A68D3
:105110009A4203D00349F620FCF7AEF900BF1837D6
:10512000BD4680BD30D9050080B588B002AFF860BB
:10513000B9607A603B607B687B6107F114020123F0
:1051400000933B68B968F868FFF73AFF7B697A68B3
:105150009A4204D004494FF48070FCF78DF900BFE7
:105160001837BD4680BD00BF30D9050080B487B078
:1051700000AFF860B9607A607B68002B02D07B6872
:105180001B8801E04FF6FF73FB8200233B6130E098
:10519000FB8A1B0A9BB2DBB21AB2FB8A1B021BB250
:1051A00013431BB2FB82FA683B6913441B789AB223
:1051B000FB8A5340FB82FB8ADBB21B09DBB29AB24B
:1051C000FB8A5340FB82FB8A1B031AB2B7F91630E5
:1051D00053401BB2FB82FB8A5B011BB203F4FF53FB
:1051E0001AB2B7F9163053401BB2FB823B69013348
:1051F0003B613A69BB689A42CAD3FB8A18461C379E
:10520000BD465DF8047B704780B483B000AF786022
:105210007B689B68044A1278134418460C37BD46D5
:105220005DF8047B704700BF89DA050080B582B065
:1052300000AF786039607B68002B03D10849832078
:10524000FCF71AF97B689B683A689A4202D23B687D
:10525000013300E0002318460837BD4680BD00BF7B
:1052600040DA050080B584B000AF78607B681B68C9
:105270001B68FB607B681B685B68BB60BA68FB6887
:105280009A4203D3BA68FB68D31A07E07868FFF73D
:10529000BBFF0246FB68D21ABB681344184610379E
:1052A000BD4680BD80B584B000AF78607B68002BC0
:1052B00003D10D499820FCF7DFF87B681B681B6859
:1052C000FB607B681B685B68BB60B9687868FFF748
:1052D000ADFF0246FB6893420CBF01230023DBB203
:1052E00018461037BD4680BD40DA050090B589B03C
:1052F00000AF786039600023FB617B68002B03D12D
:105300005349A320FCF7B8F83B68002B03D1504960
:10531000A420FCF7B1F80023FB7307F10F03184634
:10532000FEF71AFE7868FFF7BDFF0346FB76FB7EAB
:1053300083F00103DBB2002B03D17B681B7C002BC5
:1053400079D17B681B685B687B617B681B685A68E6
:105350007B681C6811467868FFF768FF0346636046
:10536000FB7E002B0AD07B681B681A687B681C6870
:1053700011467868FFF75AFF034623607B68DB68B5
:10538000013B072B37D801A252F823F0AD5303009D
:10539000BD530300F7530300CF530300F75303003B
:1053A000F7530300F7530300E15303007B685A6887
:1053B0007B6913443A6812781A702DE07B685A684A
:1053C0007B695B0013443A6812881A8024E07B688A
:1053D0005A687B699B0013443A6812681A601BE0A4
:1053E0007B685A687B69DB00D1183B68D3E90023EE
:1053F000C1E9002310E07B685B6819467B68DB68C5
:105400007A6902FB03F30B4418467B68DB681A4693
:10541000396827F0B7FA00BF7868FFF723FF3861D3
:105420007B681B689B683A699A4207D97B681B684E
:105430003A699A6002E00423FB6100E000BFFB7B55
:105440001846FEF79FFDFB6918462437BD4690BD00
:1054500040DA050090B589B000AFF860B960134636
:10546000FB710023FB61FB68002B03D14449E7205B
:10547000FCF702F8BB68002B03D14149E820FBF799
:10548000FBFF0023FB7507F117031846FEF764FDC9
:10549000F86800F0BDF8034683F00103DBB2002B8F
:1054A00062D0FB681B681B68BB61FB7983F001035A
:1054B000DBB2002B0AD0FB681B681A68FB681C680B
:1054C0001146F868FFF7B2FE03462360FB68DB680D
:1054D000013B072B37D801A252F823F0FD540300FB
:1054E0000D550300475503001F55030047550300A2
:1054F000475503004755030031550300FB685A68C0
:10550000BB6913441A78BB681A702FE0FB685A68AD
:10551000BB695B0013441A88BB681A8026E0FB68ED
:105520005A68BB699B0013441A68BB681A601DE087
:10553000FB685A68BB69DB001344D3E90023B968F0
:10554000C1E9002312E0FB685B681946FB68DB6871
:10555000BA6902FB03F30B441946FB68DB681A4681
:10556000B86827F00FFA01E00523FB61FB7D1846C0
:10557000FEF708FDFB6918462437BD4690BD00BF05
:1055800040DA050080B584B000AF78607B68002BFE
:1055900004D10D494FF40470FBF76EFF0023FB7339
:1055A00007F10F031846FEF7D7FC7B681B680C2237
:1055B0000021184627F0F4F9FB7B1846FEF7E2FCC1
:1055C00000BF1037BD4680BD40DA050080B584B00D
:1055D00000AF78607B68002B04D10C4940F21E209C
:1055E000FBF74AFF0023FB7207F10B031846FEF797
:1055F000B3FC7868FFF736FEF860FB7A1846FEF7D2
:10560000C1FCFB6818461037BD4680BD40DA050076
:1056100080B584B000AF78607B68002B04D10C4962
:1056200040F22B20FBF728FF7B681B681B68FB60A0
:105630007B681B685B68BB60FA68BB689A420CBFFA
:1056400001230023DBB218461037BD4680BD00BFE2
:1056500040DA050080B483B000AF78607B689B6857
:1056600000229A607B689B6800221A617B689B68B5
:1056700000225A617B689B680022DA607B689B6825
:1056800000225A607B689B6800221A6000BF0C37BA
:10569000BD465DF8047B704780B582B000AF78608E
:1056A00039607B68002B03D110495020FBF7E4FEE2
:1056B0003B68002B03D10D495120FBF7DDFE7B68D1
:1056C0003A681A607B681B681A687B685A607B6856
:1056D0005A687B681B685B689A4202D17B6800222B
:1056E0005A6000BF0837BD4680BD00BF8CDA050098
:1056F00080B582B000AF78607B68002B03D114497D
:105700006320FBF7B9FE7B681B68002B03D11049AF
:105710006420FBF7B1FE7B685B68002B14D07B68CC
:105720005B681A467B681B689B6813441A467B6853
:105730005A607B685A687B681B685B689A4204D130
:105740007B6800225A6000E000BF0837BD4680BD7C
:105750008CDA050080B584B000AF786039607B6872
:10576000002B03D117493A20FBF786FE3B68002B3C
:1057700003D114493B20FBF77FFE7B685B68FB602D
:105780000FE07B689B68FA68126839681046984792
:10579000034683F00103DBB2002B07D1FB681B68D3
:1057A000FB60FB681B68002BEBD100E000BFFB68CF
:1057B0001A683B681A60FB683A681A6000BF1037C5
:1057C000BD4680BDFCDA050080B584B000AF7860CE
:1057D0007B68002B03D10C495120FBF74DFE7B6801
:1057E0005B681B68FB607B685B681B68002B06D0EE
:1057F0007B685B681A687B685B6812681A60FB6884
:1058000018461037BD4680BDFCDA050080B582B071
:1058100000AF78607B68002B03D105495D20FBF762
:105820002BFE7B685B681B6818460837BD4680BD49
:10583000FCDA050080B584B000AF786039607B6821
:10584000002B03D114496920FBF716FE3B68002B9F
:1058500003D111496A20FBF70FFE0023FB727B681E
:105860005B68FB600EE0FB681B683A689A4206D1F1
:105870003B681A68FB681A600123FB7206E0FB684C
:105880001B68FB60FB681B68002BECD1FB7A184699
:105890001037BD4680BD00BFFCDA050080B584B07E
:1058A00000AF7860786800F00DF8F860FB68002BB6
:1058B00001D0FB6800E0024B18461037BD4680BDA2
:1058C0004CDB050080B487B000AF7860174B7B617C
:1058D000174B3B611FE03A697B69D31ADB10DA0F83
:1058E00013445B10DB007A691344FB60FB681B68A0
:1058F000BB60BA687B689A4202D9FB683B610AE0E8
:10590000BA687B689A4203D2FB6808337B6102E085
:10591000FB685B6804E07A693B699A42DBD3002349
:1059200018461C37BD465DF8047B70474CDF050008
:1059300074E0050090B486B000AF786039607B6891
:105940003A6853E8004F04EA020043E8000191F08E
:10595000000FF6D17C613861F9607B691846183711
:10596000BD4690BC7047000080B588B000AF78603D
:1059700039603B68FB617B681B783B737B685B68C5
:105980003B617B689B68DBB23B757B68DB68BB6116
:10599000074AFB6952F823300649FA6951F8221088
:1059A00007F10C021046984700BF2037BD4680BD66
:1059B000CCEE0020D4EE002080B588B000AF786037
:1059C00039603B68FB617B681B783B737B685B6875
:1059D0003B617B689B68DBB23B757B68DB68BB61C6
:1059E000074AFB6952F823300649FA6951F8221038
:1059F00007F10C021046984700BF2037BD4680BD16
:105A0000CCEE0020D4EE0020B0B58EB000AFF86030
:105A1000B9607A60FB681B783B632E493B6B7A6800
:105A200041F82320BB681A692B493B6B41F82320BE
:105A30003B6B012B07D1BB685B7F002B03D1274950
:105A40007620FBF719FDBB685B7F1946244A3B6B48
:105A500013440A461A70BB6807F110041D460FCDA7
:105A60000FC495E80F0084E80F003B6B3B620023F6
:105A70007B63FB681B781A46194B9B5C002B0ED08E
:105A8000FB68181D7B68002B01D0164A00E000223D
:105A900007F11003194601F0CBFE786315E0FB68AF
:105AA0001B781A460E4B9B5C002B0ED1FB6803F152
:105AB0000C007B68002B01D00B4A00E0002207F1AC
:105AC0001003194602F060FE78637B6B1846383786
:105AD000BD46B0BDCCEE0020D4EE002074E0050041
:105AE0006404012069590300B959030080B483B0EC
:105AF00000AF0346FB7197F90730002B0BDBFB79F6
:105B000003F01F02074997F907305B09012000FAEB
:105B100002F241F8232000BF0C37BD465DF8047B3C
:105B2000704700BF00E100E080B483B000AF0346DF
:105B30003960FB7197F90730002B0ADB3B68DAB25A
:105B40000C4997F907305201D2B20B4483F8002375
:105B50000AE03B68DAB20849FB7903F00F03043B23
:105B60005201D2B20B441A7600BF0C37BD465DF825
:105B7000047B704700E100E000ED00E080B582B0FA
:105B800000AF03460A46FB711346BB71BB79012B7C
:105B900002D9BB79032B09D9BB79042B02D9BB7974
:105BA000072B03D907496B20FBF766FCBA7997F9F5
:105BB000073011461846FFF7B7FF00BF0837BD464C
:105BC00080BD00BFC0E0050080B582B000AF0346D5
:105BD000FB7197F907301846FFF788FF00BF0837B9
:105BE000BD4680BD36DF704700BF18464DDF7047A9
:105BF00000BF18464EDF704700BF18464FDF7047A2
:105C000000BF184650DF704700BF184680B483B00D
:105C100000AF78604FF080427B68C2F8043300BF69
:105C20000C37BD465DF8047B7047000080B584B03A
:105C300000AF7860104B1B78002B01D0852316E055
:105C40000DF0ACFA0346002B01D008230FE07B686F
:105C5000002B01D1094B7B60786800F0FFFFF860F2
:105C6000FB68002B02D1044B01221A70FB68184616
:105C70001037BD4680BD00BFDCEE00204CE10500C2
:105C800080B584B000AF0346FB71FB791846FFF77F
:105C9000B1FFF860FB68002B03D01549E420FBF747
:105CA000EBFBFB68002B01D0FB681DE0FB7918467D
:105CB000FFF79CFFF860FB68002B03D00C49EB203A
:105CC000FBF7DAFBFB68002B01D0FB680CE0FB79EB
:105CD0001846FFF793FFF860FB68002B03D00449D8
:105CE000F220FBF7C9FBFB6818461037BD4680BDA4
:105CF00000E1050080B586B000AF786000F048F89C
:105D0000786800F0DBFF0DF049FA0346002B36D02F
:105D10000120FFF7B5FF78617B69002B03D01B4999
:105D2000FF20FBF7A9FB7B69002B01D07B6929E0F1
:105D300007F10C031846FFF765FF78617B69002BBC
:105D400004D0124940F20710FBF796FB7B69002B49
:105D500001D07B6916E0FB6803F00103002B10D033
:105D600000F070FF38613B69002B04D107494FF404
:105D70008870FBF781FB3B690020984701E000F049
:105D8000BBFF002318461837BD4680BD00E1050063
:105D900080B582B000AF0023FB70FB1C1846FEF7F5
:105DA000DBF80DF0FBF90346002B0CD00020FFF7C9
:105DB00067FF78607B68002B07D0094940F2231009
:105DC000FBF75AFB01E000F09FFFFB781846FEF757
:105DD000D9F800F0A1FF00BF0837BD4680BD00BF65
:105DE00000E1050080B584B000AF786039607B6861
:105DF000012B0CD100F01AFFF860FB68002B04D1D6
:105E0000164940F24510FBF737FBFB68984700F056
:105E100019FFB860BB68002B18D07B680B2B11D022
:105E20007B680B2B14D87B68092B03D07B680A2B6B
:105E300004D00DE0BB68022098470AE0BB68002050
:105E4000984706E0BB680120984702E000BF00E0E9
:105E500000BF00BF1037BD4680BD00BF00E1050098
:105E600080B584B000AF1C4B1B78002B04D11B49BC
:105E700040F26510FBF700FB0023FB71FB1D184689
:105E8000FEF76AF800F0D2FE0346002B0BD001208B
:105E9000FFF7A8FEF860FB68002B04D00F494FF411
:105EA000B570FBF7E9FAFB791846FEF76BF800F0DE
:105EB000C9FE0346002B0BD00120FFF7E1FEB860BE
:105EC000BB68002B04D0054940F27310FBF7D4FAED
:105ED00000BF1037BD4680BDDCEE002000E10500AC
:105EE00080B500AF114B1B78002B04D110494FF443
:105EF000BE70FBF7C1FA06210020FFF73FFE00202D
:105F0000FFF762FE00F092FE0346002B02D0042051
:105F1000FFF77CFE00F096FE0346002B03D04FF403
:105F20006070FFF773FE00BF80BD00BFDCEE002095
:105F300000E1050080B582B000AF03463960FB7117
:105F4000FB79012B02D0032B03D005E0FFF788FF7C
:105F500002E0FFF7C5FF00BF00BF0837BD4680BDA8
:105F600080B483B000AF0346FB7197F90730002B74
:105F700012DBFB7903F01F020A4997F907305B092E
:105F8000012000FA02F2203341F82320BFF34F8FA3
:105F900000BFBFF36F8F00BF00BF0C37BD465DF879
:105FA000047B704700E100E042DF704700BF184605
:105FB00043DF704700BF184644DF704700BF1846F4
:105FC00080B483B000AF0346FB714FF08043D3F839
:105FD0000C3403F00112FB7943F480339A420CBF76
:105FE00001230023DBB218460C37BD465DF8047B65
:105FF000704780B500AF0120FFF7E2FF0346184667
:1060000080BD000080B400AF064BD3F80034002BF5
:1060100014BF01230023DBB21846BD465DF8047BA4
:10602000704700BF0000014080B500AF0DF0B6F82A
:10603000034683F00103DBB2002B03D109497B2027
:10604000FBF71AFAFFF7DEFF034683F00103DBB22A
:10605000002B04D000F0E0FB034B00229A7000BF3D
:1060600080BD00BF58E10500E0EE002080B500AF24
:106070000DF094F80346002B02D0FFF795FF01E0E6
:1060800000F0ECFB80BD000080B500AF0DF086F89D
:106090000346002B05D0FFF78BFF054B00225A70FB
:1060A00004E000F0F7FB024B00225A7080BD00BFF5
:1060B000E0EE002080B400AF034B1B781846BD46CD
:1060C0005DF8047B704700BFE0EE002080B582B031
:1060D00000AF00237B60184B1B78002B02D0852378
:1060E0007B601CE0144B00229A60134B00225A6024
:1060F000114B00221A61104B0022DA600F4800F0A9
:106100004BFB78600DF04AF8034683F00103DBB2E5
:10611000002B01D000F066FB074B01221A70FFF73D
:1061200071FF0346002B02D0034B01229A707B685B
:1061300018460837BD4680BDE0EE0020C16303006D
:1061400080B485B000AF786039607B681B68FB6005
:1061500006E0FA683B689A420DD0FB681B68FB605A
:10616000FB68002BF5D17B681A683B681A607B6876
:106170003A681A6000E000BF1437BD465DF8047B42
:10618000704780B485B000AF78607B681B68FB60A7
:10619000FB68002B03D0FB681A687B681A60FB68F9
:1061A00018461437BD465DF8047B704780B582B051
:1061B00000AF154B1B78002B04D1144940F2171087
:1061C000FBF75AF9104BDB68002B04D10F494FF451
:1061D0008C70FBF751F90023FB71FB1D1846FDF78E
:1061E000BBFE094BDB68013B074AD360064BDB680B
:1061F000002B01D1FFF718FFFB791846FDF7C2FE0F
:1062000000BF0837BD4680BDE0EE002058E1050024
:1062100080B584B000AF7860274B1B78002B04D189
:10622000264940F23310FBF727F9234B5B78DBB2AA
:10623000002B17D07B68002B03D07B685B680020A5
:1062400098470023FB7307F10F031846FDF784FE00
:10625000194B5B680133184A5360FB7B1846FDF706
:1062600091FE1CE00023BB7307F10E031846FDF7F7
:1062700073FE7B68002B03D079681148FFF760FF3D
:106280000D4B5B68002B01D1FFF7F0FE0A4B5B68FA
:106290000133094A5360BB7B1846FDF773FE064B7A
:1062A0005B68002B04D1054940F24F10FBF7E4F87E
:1062B00000BF1037BD4680BDE0EE002058E105006C
:1062C000E8EE002080B582B000AF154B1B78002BA4
:1062D00004D114494FF4AA70FBF7CEF8104B5B6859
:1062E000002B04D10F4940F25510FBF7C5F80023ED
:1062F000FB71FB1D1846FDF72FFE094B5B68013B48
:10630000074A5360064B5B68002B01D1FFF7BCFEC8
:10631000FB791846FDF736FE00BF0837BD4680BD45
:10632000E0EE002058E1050080B582B000AF104BD0
:106330001B78002B04D10F494FF4B170FBF79CF888
:106340000CF02CFF0346002B0AD03B1D1846FFF72C
:1063500033FE7B68002B14BF01230023DBB202E075
:10636000FFF747FE034618460837BD4680BD00BF0D
:10637000E0EE002058E1050080B584B000AF034690
:10638000FB71FB79002B02D10B4BFB6001E00B4B47
:10639000FB60F868FFF7F5FEB860BB68002B05D01E
:1063A000BB685B68FA7910469847F2E700BF00BF08
:1063B0001037BD4680BD00BFE8EE0020F0EE0020A3
:1063C00080B582B000AF0346FB71FB79002B05D18D
:1063D000094B01225A700020FFF7CEFFFB79012BF9
:1063E00005D1054B01229A700120FFF7C5FF00BFC0
:1063F0000837BD4680BD00BFE0EE002080B582B00A
:1064000000AF786039607B68002B05D1044B012216
:106410005A700020FFF7B0FF00BF0837BD4680BDAF
:10642000E0EE002080B584B000AF03463960FB7118
:10643000FB79032B27D0032B33DC002B02D0012B5D
:1064400004D02EE00020FFF78BFD2BE00023FB7330
:1064500007F10F031846FDF77FFD144B1B7883F0FF
:106460000103DBB2002B01D0FFF730FE0F4BDB68DE
:1064700001330E4AD3600D4B01229A70FB7B184604
:10648000FDF780FD0EE0094B1B78002B04D1084975
:1064900040F25220FAF7F0FF00F0A4F9FFF786FE71
:1064A00000E000BF00BF1037BD4680BDE0EE002019
:1064B00058E1050080B483B000AF0346FB7197F943
:1064C0000730002B0BDBFB7903F01F02074997F91C
:1064D00007305B09012000FA02F241F8232000BFD7
:1064E0000C37BD465DF8047B704700BF00E100E05B
:1064F00080B483B000AF03463960FB7197F9073071
:10650000002B0ADB3B68DAB20C4997F907305201DD
:10651000D2B20B4483F800230AE03B68DAB20849A0
:10652000FB7903F00F03043B5201D2B20B441A76FD
:1065300000BF0C37BD465DF8047B704700E100E00A
:1065400000ED00E080B483B000AF78607B681B0B87
:106550005BB218460C37BD465DF8047B70470000FF
:1065600080B582B000AF03460A46FB711346BB718B
:10657000BB79012B02D9BB79032B09D9BB79042B39
:1065800002D9BB79072B03D907496B20FAF774FFAF
:10659000BA7997F9073011461846FFF7A9FF00BFEF
:1065A0000837BD4680BD00BFA4E1050080B582B0BC
:1065B00000AF0346FB7197F907301846FFF77AFFE3
:1065C00000BF0837BD4680BD80B483B000AF03462E
:1065D000FB71114A97F90730002B00DA1F335B116A
:1065E0005BB252F8232097F90730594203F01F039A
:1065F00001F01F0158BF4B425BB222FA03F303F0D4
:106600000103002B14BF01230023DBB218460C3713
:10661000BD465DF8047B704700E100E080B483B0C4
:1066200000AF78604FF080427B68C2F8043300BF4F
:106630000C37BD465DF8047B704780B483B000AF73
:1066400078604FF080427B68C2F8083300BF0C3797
:10665000BD465DF8047B704780B483B000AF03464D
:10666000FB71FB7903F1804301221A6000BF0C37F4
:10667000BD465DF8047B704780B485B000AF03462B
:10668000FB80FB8803F1804300221A60FB8803F142
:1066900080431B68FB60FB6800BF1437BD465DF894
:1066A000047B704780B483B000AF0346FB80FB8857
:1066B00003F180431B68002B14BF01230023DBB2CE
:1066C00018460C37BD465DF8047B704780B483B034
:1066D00000AF78604FF080427B68C2F8183500BF89
:1066E0000C37BD465DF8047B704780B400AF4FF0B7
:1066F0008043D3F818341B0C03F00103002B14BFA4
:1067000001230023DBB21846BD465DF8047B7047C9
:1067100080B483B000AF0346FB714FF08043D3F8E1
:106720000C3403F00112FB7943F480339A420CBF1E
:1067300001230023DBB218460C37BD465DF8047B0D
:10674000704780B582B000AF0623FB714FF08040E8
:10675000FFF7F8FE03461846FFF736FF034683F0BF
:106760000103DBB2002B12D04FF08040FFF7EAFEAE
:1067700003461A46FB7919461046FFF7F1FE4FF023
:106780008040FFF7DFFE03461846FFF70FFF00BF0C
:106790000837BD4680BD000080B584B000AF78608A
:1067A0007B68002B03D10D49A320FAF765FE002377
:1067B000FB600B4B1B79002B02D08523FB6008E0AC
:1067C000074A7B681360064B01221A71044B0022B2
:1067D0005A71FB6818461037BD4680BDECE10500D4
:1067E000F4EE002080B500AF084B1B79002B03D1DD
:1067F0000749BC20FAF740FEFFF7A3FF0120FFF78F
:1068000065FF044B01221A7000BF80BDF4EE00202A
:10681000ECE105006604012080B500AF0D4B1B794B
:10682000002B03D10C49F620FAF726FE0220FFF7D1
:1068300004FF4FF48270FFF71FFF0C20FFF70CFFDF
:1068400000BFFFF752FF0346002BFAD100BF00BF85
:1068500080BD00BFF4EE0020ECE1050080B500AF84
:106860000A4B1B79002B04D1094940F20110FAF7B9
:1068700003FE4FF48070FFF7FFFE0120FFF7CEFE0E
:106880000020FFF7E9FE00BF80BD00BFF4EE00204E
:10689000ECE1050080B500AF0F4B1B79002B04D154
:1068A0000E4940F20910FAF7E7FD0120FFF7C5FE97
:1068B0004FF48070FFF7E0FE0420FFF7CDFE00BF2D
:1068C0000120FFF725FF0346002BF9D1024B0022E0
:1068D0005A7100BF80BD00BFF4EE0020ECE105005E
:1068E00080B500AF4FF48070FFF7DCFE0346002B4D
:1068F00014D04FF48070FFF7BFFE0120FFF79DFE1C
:10690000104B5B7983F00103DBB2002B06D00D4BFB
:1069100001225A710B4B1B68002098474FF482707C
:10692000FFF7C0FE0346002B0AD04FF48270FFF73A
:10693000A3FE0220FFF781FE024B1B68012098474F
:1069400000BF80BDF4EE002080B483B000AF0346EA
:10695000FB7197F90730002B0BDBFB7903F01F026B
:10696000074997F907305B09012000FA02F241F864
:10697000232000BF0C37BD465DF8047B704700BF85
:1069800000E100E080B483B000AF03463960FB71E2
:1069900097F90730002B0ADB3B68DAB20C4997F90C
:1069A00007305201D2B20B4483F800230AE03B685F
:1069B000DAB20849FB7903F00F03043B5201D2B26B
:1069C0000B441A7600BF0C37BD465DF8047B704758
:1069D00000E100E000ED00E080B483B000AF78603B
:1069E0007B681B0B5BB218460C37BD465DF8047B19
:1069F0007047000080B582B000AF03460A46FB71C5
:106A00001346BB71BB79012B02D9BB79032B09D982
:106A1000BB79042B02D9BB79072B03D907496B201B
:106A2000FAF72AFDBA7997F9073011461846FFF7A9
:106A3000A9FF00BF0837BD4680BD00BF34E2050096
:106A400080B582B000AF0346FB7197F90730184656
:106A5000FFF77AFF00BF0837BD4680BD80B483B022
:106A600000AF0346FB71114A97F90730002B00DA9B
:106A70001F335B115BB252F8232097F9073059425C
:106A800003F01F0301F01F0158BF4B425BB222FA13
:106A900003F303F00103002B14BF01230023DBB237
:106AA00018460C37BD465DF8047B704700E100E0F6
:106AB00080B485B000AF0346FB80FB8803F18043C0
:106AC00000221A60FB8803F180431B68FB60FB68AF
:106AD00000BF1437BD465DF8047B704780B483B0B7
